:020000040800F2
:1000000000000220B9020008BF020008C302000875
:1000100035030008390300088103000800000000D0
:10002000000000000000000000000000C9030008FC
:10003000CD03000800000000D103000831170008BC
:10004000E5030008E5030008E5030008E5030008F0
:10005000E5030008E5030008E5030008E5030008E0
:10006000E5030008E5030008E5030008E5030008D0
:10007000E5030008E5030008E5030008E5030008C0
:10008000E5030008E5030008E5030008E5030008B0
:10009000E5030008E5030008E5030008E5030008A0
:1000A000E5030008E5030008E5030008E503000890
:1000B000E5030008E5030008E5030008E503000880
:1000C000E5030008E5030008E5030008E503000870
:1000D000E5030008E5030008E5030008E503000860
:1000E000E5030008E5030008E5030008E503000850
:1000F000E5030008E5030008E5030008E503000840
:10010000E5030008E5030008E5030008E50300082F
:10011000E5030008E5030008E5030008E50300081F
:10012000E5030008E5030008E5030008E50300080F
:10013000E5030008E5030008E5030008E5030008FF
:10014000E5030008E5030008E5030008E5030008EF
:10015000E5030008E5030008E5030008E5030008DF
:10016000E5030008E5030008E5030008E5030008CF
:10017000E5030008E5030008E503000800000000AF
:10018000E5030008E503000800B583B001F0B2F80C
:10019000384B394A1360394A1360394900E0214627
:1001A000384B99420BD20A684B6801F10C048868FD
:1001B0009842F4D952F8041B43F8041BF8E72E4B7D
:1001C0001A68314B9A4200D0FEE72C4B1A682F4B2D
:1001D0009A42F9D1274B2E4A13602E4A13602E4AB9
:1001E00005E0002043F8040B9A42FAD80A462B4B4C
:1001F0009A4204D2114651F8083B5268F4E7244B66
:100200001B6813B9234B1B6803B1FEE701F026F905
:10021000694601A800F07EFF214C224BE41AA4108D
:10022000002504E01F4B53F8253098470135AC42B8
:10023000F8DC1D4C1D4BE41AA410002504E01B4BF8
:1002400053F8253098470135AC42F8DC0099019805
:1002500001F0C0F90546164C164BE41AA41004E050
:10026000013C144B53F824309847002CF8DC284606
:1002700000F02CFFBABADECA000000207C0000208B
:10028000E8030008000400087856341232547698C7
:10029000800000206C010020000400081004000809
:1002A00010040008100400081404000810040008DA
:1002B000140400081404000808B5FFF765FF00BE29
:1002C000FEE71EF0040F0CBFEFF30880EFF3098088
:1002D0007146414A10472DE9F04182B004460D466F
:1002E000124B5F6BD3F838809E6A1B6B13F0020FC2
:1002F00003D00E4BDB6A002B0BDB0D4800F046FFF2
:10030000009543463A463146204600F069FF00BE5C
:10031000FEE74BF6AB6100F0DDFF0028EDD0034BAC
:100320004FF00042DA6202B0BDE8F08100ED00E07B
:100330002825000800BEFEE71EF0040F0CBFEFF3F7
:100340000880EFF309807146244A10472DE9F041F7
:1003500082B004460D46084B5F6BD3F838809E6A26
:10036000064800F013FF009543463A4631462046C2
:1003700000F036FF00BEFEE700ED00E03825000883
:100380001EF0040F0CBFEFF30880EFF309807146F5
:10039000134A10472DE9F04182B004460D46084B40
:1003A0005F6BD3F838809E6A064800F0EFFE009538
:1003B00043463A463146204600F012FF00BEFEE7B3
:1003C00000ED00E04425000800BEFEE700BEFEE7A9
:1003D00000BEFEE770470000D70200084D0300088A
:0803E0009503000800BEFEE7D2
:1003E80008260008000000208000002008260008D9
:1003F80000000010000000108000002070010020A4
:0C0408000000001000000010BD160008ED
:1004200010B504460E4B18784FF47A73B3FBF0F313
:100430000C4A1068B0FBF3F000F0A8F868B90F2C74
:1004400001D901200AE0002221464FF0FF3000F0E0
:1004500057F8054B1C60002000E0012010BD00BFD4
:1004600004000020140000200800002008B50B4BF9
:100470001A6842F400721A601A6842F480621A60C4
:100480001A6842F480721A60032000F01BF80F20F3
:10049000FFF7C6FF01F019F9002008BD003C02403B
:1004A000034A1168034B1B780B441360704700BF6D
:1004B0005801002004000020014B1868704700BF5D
:1004C0005801002010B50446C31E042B0FD80A4A59
:1004D000D36823F4E0631B041B0C240204F4E064DF
:1004E000234343F0BF6343F40033D36010BD922134
:1004F000024800F0BBFFEAE700ED00E078230008C7
:1005000070B505460C4616460F2A25D80F2C28D85C
:100510001B4BDB68C3F30223C3F10701042928BF87
:1005200004211A1D062A21D9033B4FF0FF3202FA9B
:1005300001F124EA01049C4002FA03F326EA0306CF
:100540003443002D14DB2401E4B205F1604505F5C8
:10055000614585F8004370BDAA210A4800F086FF76
:10056000D4E7AB21074800F081FFD1E70023DCE7A7
:1005700005F00F052401E4B2034B5C55EBE700BF27
:1005800000ED00E07823000814ED00E00138B0F140
:10059000807F0AD2064B5860064AF02182F8231069
:1005A0000020986007221A6070470120704700BF42
:1005B00010E000E000ED00E010B50446042800D093
:1005C00038B9042C0BD0094A136823F004031360D4
:1005D00010BD40F2C911064800F048FFF1E7034A98
:1005E000136843F004031360F2E700BF10E000E07B
:1005F000782300082DE9F04383B007460E46B24B3E
:10060000984223D003F5806398421FD003F580639E
:1006100098421BD003F58063984217D003F580639E
:10062000984213D003F5806398420FD003F580639E
:1006300098420BD003F58063984207D003F580639E
:10064000984203D0B321A14800F010FF33689AB25A
:1006500012B11B0C1B041BB1B4219C4800F006FF17
:100660007368012B1ED9112B1CD0022B1AD0122B10
:1006700018D0974A934215D002F58012934211D0B8
:1006800002F5801293420DD0A2F5F812934209D0E0
:1006900002F58012934205D002F58012934201D0F8
:1006A000032B04D1B368022B06D800244BE0B521FC
:1006B000864800F0DBFEF5E7B621844800F0D6FE60
:1006C000F3E7C821814800F0D1FE52E0E0217F48E5
:1006D00000F0CCFE90E0072300E000238B400343B2
:1006E00002327C4941F822307B4B1A686FEA0803DA
:1006F00022EA0801706810F4803F01D048EA020144
:10070000754A1160526803EA0201706810F4003FF4
:1007100001D048EA0201704A5160926803EA02017E
:10072000706810F4801F01D048EA02016A4A9160A3
:10073000D2681340716811F4001F01D048EA020327
:10074000654AD36001340F2C00F2BB800125A5401F
:10075000336803EA050835EA0303F3D173685A1EC8
:10076000012A03D9112B01D0122B15D1F368032BC9
:10077000A7D8BA68610003238B4022EA0302F3681A
:100780008B401343BB607A6822EA05027368C3F3A7
:100790000015A54015437D60FA6865000323AB4052
:1007A0006FEA030922EA0302B368AB401343FB601C
:1007B0007368022B01D0122B2ED13369E3B1092BC0
:1007C0001AD0012B18D0022B16D0032B14D0042BD7
:1007D00012D0052B10D0062B0ED0072B0CD0082BD7
:1007E0000AD00A2B08D00B2B06D00C2B04D00D2BD3
:1007F00002D00F2B7FF46AAFE208083257F82200CC
:1008000004F0070399000F238B4020EA03003369AB
:100810008B40034347F822303B6809EA03097368B9
:1008200003F00303AB4043EA09033B60736813F032
:10083000805F87D000230193284B5A6C42F480429A
:100840005A645B6C03F480430193019BA208911CE2
:10085000204B53F8210004F0030399000F238B4031
:1008600020EA0300184B9F423FF437AF03F5806343
:100870009F421AD003F580639F4218D003F580632E
:100880009F4216D003F580639F4214D003F5806326
:100890009F4212D003F580639F4210D003F580631E
:1008A0009F423FF418AF082318E7012316E70223FD
:1008B00014E7032312E7042310E705230EE70623BA
:1008C0000CE703B0BDE8F08300000240AC23000851
:1008D0000000111000380140003C01400038024087
:1008E000002800F05C8270B582B0044603680F2BCC
:1008F00039D8236813F0010F4DD063682BB1B3F5DD
:10090000803F02D0B3F5A02F32D1A54B9B6803F0F6
:100910000C03042B36D0A24B9B6803F00C03082B6E
:100920002BD06368B3F5803F5FD0B3F5A02F62D0C2
:100930009B4B1A6822F480321A601A6822F48022D3
:100940001A606368002B60D0FFF7B6FD0546944B34
:100950001B6813F4003F1ED1FFF7AEFD401B642857
:10096000F5D9032022E2E8218E4800F07FFDC0E7A0
:10097000ED218C4800F07AFDC7E7894B5B6813F4E2
:10098000800FCED0864B1B6813F4003F03D0636802
:10099000002B00F00682236813F0020F66D0E36894
:1009A000012B41D823691F2B44D87D4B9B6813F042
:1009B0000C0F4AD07A4B9B6803F00C03082B3FD0F6
:1009C000E368002B76D0784B01221A60FFF774FDA4
:1009D0000546734B1B6813F0020F62D1FFF76CFDE5
:1009E000401B0228F5D90320E0E16D4A136843F467
:1009F00080331360A5E76A4B1A6842F480221A60BC
:100A00001A6842F480321A609BE7FFF755FD0546ED
:100A1000634B1B6813F4003FBDD0FFF74DFD401B37
:100A20006428F5D90320C1E140F21F115D4800F0B0
:100A30001DFDB7E74FF490715A4800F017FDB4E779
:100A4000574B5B6813F4800FBAD1554B1B6813F0FA
:100A5000020F03D0E368012B40F0A581504A1368D0
:100A600023F0F803216943EAC1031360236813F0FC
:100A7000080F49D06369012B2ED8636993B34B4BA0
:100A800001221A60FFF718FD0546454B5B6F13F016
:100A9000020F39D1FFF710FD401B0228F5D90320C2
:100AA00084E13F4A136823F0F803216943EAC10354
:100AB0001360DBE73C4B00221A60FFF7FDFC0546A4
:100AC000374B1B6813F0020FD0D0FFF7F5FC401B2B
:100AD0000228F5D9032069E14FF4B071314800F0E4
:100AE000C5FCCAE7314B00221A60FFF7E5FC05465A
:100AF0002B4B5B6F13F0020F06D0FFF7DDFC401BA2
:100B00000228F5D9032051E1236813F0040F00F007
:100B10008880A368012B01D9052B12D1204B1B6CB7
:100B200013F0805F13D1002301931D4B1A6C42F028
:100B300080521A641B6C03F080530193019B0125C2
:100B400006E04FF4C671174800F090FCE6E7002578
:100B5000174B1B6813F4807F2CD0A368012B3DD06A
:100B6000052B41D00E4B1A6F22F001021A671A6F43
:100B700022F004021A67A368002B3FD0FFF79CFC09
:100B80000646074B1B6F13F0020F48D1FFF794FC8A
:100B9000801B41F288339842F3D9032006E100BF5D
:100BA00000380240DC23000800004742800E474224
:100BB00000700040844A136843F480731360FFF7A9
:100BC0007BFC0646804B1B6813F4807FC5D1FFF782
:100BD00073FC801B0228F5D90320E7E07B4A136FE2
:100BE00043F001031367C6E7784B1A6F42F0040223
:100BF0001A671A6F42F001021A67BCE7FFF75CFC44
:100C00000646724B1B6F13F0020F08D0FFF754FC1F
:100C1000801B41F288339842F3D90320C6E0002DAF
:100C20003BD1A369022B3ED8A369002B00F0BD8005
:100C3000664A926802F00C02082A00F09080022BAB
:100C400079D1E36913B1B3F5800F32D1236A3F2B19
:100C500035D8636A323BB3F5BF7F36D8A36A022B1F
:100C600005D0042B03D0062B01D0082B33D1E36A27
:100C7000023B0D2B35D8564B00221A60FFF71CFCA7
:100C80000546524B1B6813F0007F30D0FFF714FC71
:100C9000401B0228F5D9032088E04C4A136C23F04E
:100CA00080531364BDE740F2CF114A4800F0DEFBE9
:100CB000BAE74FF4EC71474800F0D8FBC6E740F2C2
:100CC000D911444800F0D2FBC3E74FF4ED7141481D
:100CD00000F0CCFBC2E740F2DB113E4800F0C6FB5F
:100CE000C5E74FF4EE713B4800F0C0FBC3E7E36992
:100CF000226A1343626A43EA8213A26A5208013AE3
:100D000043EA0243E26A43EA0263304A5360304BEB
:100D100001221A60FFF7D0FB04462C4B1B6813F02E
:100D2000007F06D1FFF7C8FB001B0228F5D903207E
:100D30003CE000203AE0264B00221A60FFF7BCFBA3
:100D40000446224B1B6813F0007F06D0FFF7B4FB6C
:100D5000001B0228F5D9032028E0002026E0012B03
:100D600026D01A4B5B6803F48001E269914221D1DD
:100D700003F03F02216A8A421ED1616A47F6C072BF
:100D80001A408A421AD103F44032A16A8A4217D12A
:100D900003F07063E26A934214D1002006E0012060
:100DA0007047012002E0012000E0002002B070BD89
:100DB0000120FBE70120F9E70120F7E70120F5E733
:100DC0000120F3E70120F1E7007000400038024005
:100DD00060004742DC230008F8B52F4B9B6803F006
:100DE0000C03042B53D0082B53D12B4B5A6802F021
:100DF0003F025B6813F4800F28D0274B5B68C3F376
:100E0000881358010021C01A61F100018E0146EAE1
:100E1000906687013C1A66EB0105E90041EA5471CE
:100E2000E000C01841F100014B0243EAD0534402F4
:100E300020461946002300F081FC174B5B68C3F382
:100E4000014301335B00B0FBF3F023E0124B5B681E
:100E5000C3F388135C010025E41A65F10005AE01B7
:100E600046EA9466A701381B66EB0501CC0044EA0C
:100E70005074C500E81844F100018B0243EA905316
:100E8000840220461946002300F058FCD5E70348A9
:100E900000E00348F8BD00BF0038024000127A00AD
:100EA0000024F400002800F0F78070B50D460446D9
:100EB0000368013B0E2B6BD8072D6FD87A4B1B684C
:100EC00003F00F03AB4208D2EBB2774A13701368FA
:100ED00003F00F03AB4240F0E180236813F0020FF0
:100EE00029D013F0040F04D0704A936843F4E05300
:100EF0009360236813F0080F04D06C4A936843F49E
:100F000060439360A3687BB1802B0DD0902B0BD0F6
:100F1000A02B09D0B02B07D0C02B05D0D02B03D0ED
:100F2000E02B01D0F02B3FD1604A936823F0F0030F
:100F3000A1680B439360236813F0010F4ED06368E0
:100F4000032B37D86368012B3AD09A1E012A3ED969
:100F5000564A126812F0020F00F0A28053498A68C4
:100F600022F0030213438B60FFF7A6FA06464F4BAD
:100F70009B6803F00C036268B3EB820F2ED0FFF77F
:100F80009BFA801B41F288339842F0D9032076E027
:100F900040F25121464800F069FA8DE740F25221B3
:100FA000434800F063FA89E740F27521404800F0B9
:100FB0005DFAB9E74FF41F713D4800F057FAC1E7F9
:100FC0003A4A126812F4003FC8D1012057E0374A6C
:100FD000126812F0007FC1D1012050E0324B1B6833
:100FE00003F00F03AB4207D9EAB22F4B1A701B680C
:100FF00003F00F03AB4255D1236813F0040F14D054
:10100000E3685BB1B3F5805F08D0B3F5A05F05D0AE
:10101000B3F5C05F02D0B3F5E05F31D1234A9368E6
:1010200023F4E053E1680B439360236813F0080F47
:1010300015D023695BB1B3F5805F08D0B3F5A05F2D
:1010400005D0B3F5C05F02D0B3F5E05F1ED1174AFB
:10105000936823F46043216943EAC1039360FFF777
:10106000BBFE124B9B68C3F30313124AD35CD840F8
:10107000114B1860114B1868FFF7D2F9002070BDB2
:1010800040F2BA210A4800F0F1F9C7E740F2C12165
:10109000074800F0EBF9DAE7012070470120EEE79E
:1010A0000120ECE70120EAE7003C02400038024062
:1010B000DC2300085425000814000020080000204C
:1010C000014B1868704700BF14000020FEE70000C5
:1010D00008B503460C4A12685AB10B4A106803332C
:1010E00023F003030344094A934206D8064A1360D7
:1010F00008BD054A06491160EFE700F099FC0C2392
:1011000003604FF0FF30F3E78400002000FC012073
:101110007001002001230360014B0B60704700BF8A
:101120000C0000202DE9F04385B004460F464356DD
:1011300033BB042528462146ABBE0446384605B0DD
:10114000BDE8F08314F9010B04AA1A4402F8100C4C
:101150000133AB42F6D304AA1344002203F8102C47
:101160004FF00408E94640464946ABBE8046761B30
:10117000002EE3D03546102E28BF10250023E8E7C7
:101180000E46F5E708B5FFF7CDFF08BD0FB400B573
:1011900083B004AB53F8042B01938021074800F07F
:1011A00081FC002804DC03B05DF804EB04B0704758
:1011B00001460248FFF7E6FFF5E700BF8C0000207C
:1011C00010B5044600F03AFC01462046FFF7DAFF6E
:1011D00001210248FFF7D6FF10BD00BFA42400087C
:1011E000F8B504460D4617461E462748FFF7CEFFC2
:1011F00021682648FFF7CAFF61682548FFF7C6FF48
:10120000A1682448FFF7C2FFE1682348FFF7BEFF4B
:1012100021692248FFF7BAFF61692148FFF7B6FF4D
:10122000A1692048FFF7B2FFE1691F48FFF7AEFF51
:101230001E48FFF7ABFF29461D48FFF7A7FF1D4CCF
:10124000E16A1D48FFF7A2FF216B1C48FFF79EFFD4
:10125000E16B1B48FFF79AFF15F0800F0AD115F4D8
:10126000004F0CD11748FFF791FF06991648FFF77A
:101270008DFFF8BD39461548FFF788FFEFE7314687
:101280001348FFF783FFEDE70C2400081C24000837
:101290002C2400083C2400084C2400085C2400088E
:1012A0006C2400087C2400088C2400089C2400087E
:1012B000A824000800ED00E0B8240008C8240008B5
:1012C000D82400080825000810250008E824000894
:1012D000F824000883691A888A4201D000207047E8
:1012E0000268033A012A01D9002070470233836162
:1012F0000120704708B500F009F8024A024B9A60D5
:1013000008BD00BF0000000800ED00E0024B4FF0F8
:1013100000629A60704700BF00ED00E0224B9B68BE
:1013200003F00C03042B14D0082B16D01BB11F4B59
:101330001F4A1A6002E01D4B1D4A1A601A4B9B6837
:10134000C3F303131B4AD15C184A1368CB401360E4
:101350007047164B184A1A60F0E7134B5A685B68DF
:1013600003F03F0312F4800F13D0134AB2FBF3F2E1
:101370000D4B5B68C3F3881303FB02F30A4A526800
:10138000C2F3014201325200B3FBF2F3074A136089
:10139000D4E7074AB2FBF3F2034B5B68C3F388134D
:1013A00003FB02F3EAE700BF00380240140000200C
:1013B0000024F4005425000800127A0030B595B0DE
:1013C00000240194224B1A6C42F080521A641B6C68
:1013D00003F080530193019B02941E4B1A6842F460
:1013E00080421A601B6803F480430293029B01232E
:1013F00008934FF4803309934FF480030F9308232D
:1014000010934FF4A8731193022512950723139399
:101410000E9508A8FFF764FA0F230393049505942B
:101420004FF4A05306934FF480530793052103A86C
:10143000FFF738FDFFF744FE074BA3FB00308009A0
:10144000FFF7A4F80420FFF7B7F815B030BD00BFD0
:101450000038024000700040D34D621008B5FFF71D
:1014600005F8FFF7ABFFFFF759FF08BD08B50A46BF
:1014700001460248FFF78AFEFEE700BF6425000828
:1014800010B4016042600373012303FA02F2826028
:1014900010BC7047037B5BB1426802F11001036826
:1014A00003F5801380339B0201228A409A617047C2
:1014B000036803F5801380339B0282689A6170474A
:1014C000037B3BB1036803F5801380339B02826882
:1014D0009A617047426802F11001036803F58013B6
:1014E00080339B0201228A409A61704710B586B012
:1014F00004460D48026B2168012303FA01F10A43F7
:101500000263A2680192029302220492039320686C
:1015100000F58010803001A98002FFF76BF82046AB
:10152000FFF7CEFF06B010BD00380240036803F598
:10153000801380339B0219698268114204D0596973
:1015400021EA02025A61704759690A435A61704799
:10155000037B5BB1036803F5801380339B021A6938
:1015600083681A420CBF012000207047036803F50E
:10157000801380339B021A6983681A4214BF0120CA
:1015800000207047012800D070474FF6FF73994242
:10159000FAD110B50E4C00230C2203212046FFF790
:1015A0006FFF00230D22032104F11000FFF768FFF5
:1015B00000230E22032104F12000FFF761FF002326
:1015C0000F22032104F13000FFF75AFF10BD00BFC6
:1015D0000C01002070B582B03348FFF7F1FD334BAA
:1015E00019683348FFF7D2FD01A800F06FF8002416
:1015F000032C06D82F4800EB0410FFF777FF0134C7
:10160000F6E70024032C06D82A4800EB0410FFF765
:1016100041FF0134F6E74FF47A7000F075F80024CA
:10162000032C06D8234800EB0410FFF749FF0134D0
:10163000F6E7FA2000F068F801211F48FFF7A6FD41
:1016400000240126032C1FD81A4D05EB041528464B
:10165000FFF720FF40F2EE2000F056F82846FFF793
:101660002FFFFA2000F050F8013631461248FFF7FC
:101670008DFD0134E6E74FF47A7000F045F801364D
:1016800031460D48FFF782FD0025032DF3D8094CA4
:1016900004EB05142046FFF749FF2046FFF758FFEB
:1016A0000028E8D10135F0E7942500081400002057
:1016B000A82500080C010020C025000808B54FF639
:1016C000FF710120FFF75EFF08BD70470A4B1B68E2
:1016D0000A4AA2FB03239B09013BB3F1807F09D295
:1016E000074A5360074BF02183F8231000239360CF
:1016F00007231360704700BF14000020D34D621011
:1017000010E000E000ED00E0034B1860024B1B68A6
:10171000002BFBD1704700BF4C010020034B1B681E
:101720001BB1024A1368013B136070474C01002053
:1017300008B5FEF7B5FEFFF7F1FF08BD53B94AB98A
:10174000002908BF00281CBF4FF0FF314FF0FF30C9
:1017500000F06CB9ADF1080C6DE904CE00F006F8AC
:10176000DDF804E0DDE9022304B070472DE9F0471D
:10177000089E0D4604468E46002B40F082808A4229
:10178000174646D9B2FA82F24AB1C2F1200105FAEF
:1017900002F320FA01F1974041EA030E94404FEA28
:1017A0001748230CBEFBF8FCB9B208FB1CEE43EA59
:1017B0000E430CFB01F098420AD9FB180CF1FF35DF
:1017C00080F01681984240F21381ACF1020C3B4448
:1017D0001B1AA4B2B3FBF8F008FB103344EA03442D
:1017E00000FB01F1A14209D93C1900F1FF3380F05F
:1017F0000181A14240F2FE8002383C44641A40EA72
:101800000C4000211EB1D4400023C6E90043BDE8CE
:10181000F08702B9FFDEB2FA82F2002A4FD1CB1B69
:101820004FEA174E1FFA87F80121B3FBFEFC250C87
:101830000EFB1C3345EA034508FB0CF3AB4207D90A
:101840007D190CF1FF3002D2AB4200F2E7808446F2
:10185000ED1AA3B2B5FBFEF00EFB105543EA0544AA
:1018600008FB00F8A04507D93C1900F1FF3302D26C
:10187000A04500F2D7801846A4EB080440EA0C40CB
:10188000C0E78B4208D9002E00F0AF800021C6E9E6
:1018900000050846BDE8F087B3FA83F100294BD173
:1018A000AB4202D3824200F2B780841A65EB030395
:1018B00001209E46002EAAD0C6E9004EA7E7C2F13D
:1018C000200C01FA02F3974020FA0CF04FEA174E71
:1018D00021FA0CFC1843BCFBFEF1050C0EFB11CCED
:1018E0001FFA87F845EA0C4501FB08F3AB4204FAFE
:1018F00002F409D97D1901F1FF3C80F08B80AB42E5
:1019000040F2888002393D44EB1A85B2B3FBFEF009
:101910000EFB103345EA034500FB08F3AB4207D941
:101920007D1900F1FF3C71D2AB426FD902383D44C2
:10193000EB1A40EA014178E7C1F1200C8B4022FA12
:101940000CF71F4320FA0CF405FA01F34FEA174E87
:1019500025FA0CF51C43230CB5FBFEF91FFA87F89A
:101960000EFB195543EA054509FB08FAAA4502FA98
:1019700001F200FA01F308D97D1909F1FF3047D2CD
:10198000AA4545D9A9F102093D44A5EB0A05A4B22F
:10199000B5FBFEF00EFB105544EA054400FB08F8C9
:1019A000A04507D93C1900F1FF352DD2A0452BD910
:1019B00002383C4440EA0940A4EB0804A0FB028939
:1019C0004C45C6464D4619D316D05EB1B3EB0E0258
:1019D00064EB050404FA0CFCCA404CEA0202CC4059
:1019E000C6E900240021BDE8F087314630460EE705
:1019F000AC46EDE6184601E74345E6D2B8EB020EE9
:101A000069EB07050138E0E72846D3E760468FE732
:101A10008146BAE7614677E708464BE7ACF1020C2E
:101A20003D4415E702383C4426E700BF704700BF3D
:101A3000014B1868704700BF18000020034613F8D8
:101A4000012B002AFBD1181A0138704730B5141E3B
:101A500005469BB0184605DA8B232B604FF0FF300C
:101A60001BB030BD4FF40273ADF80C3014BF04F15D
:101A7000FF332346029305934FF6FF7300910491C1
:101A8000ADF80E3002461E9B6946284600F074F8F9
:101A9000431CBCBF8B232B60002CE1D0009B002299
:101AA0001A70DDE707B5009313460A46014603485E
:101AB0000068FFF7CBFF03B05DF804FB18000020BF
:101AC0002DE9F0478E689E4282460C4690461F469E
:101AD00038D88A8912F4906F32D025680969A5EB4D
:101AE0000109656905EB450505EBD57501334B44E7
:101AF0006D109D4238BF1D46530531D5294600F073
:101B000095FB064650B90C23CAF80030A38943F070
:101B10004003A3814FF0FF30BDE8F08721694A46BA
:101B200000F00EFBA38923F4906343F08003A381AC
:101B3000266165614E44A5EB09052660A5603E4619
:101B4000BE4200D93E4632462068414600F006FBC0
:101B5000A36822689B1B3244A36022600020DBE75D
:101B60002A4600F0BDFB06460028E1D12169504617
:101B700000F00EFBC7E700002DE9F04F98468B8977
:101B80001B069DB007460D4614460ED50B6963B97A
:101B9000402100F04BFB2860286120B90C233B60FA
:101BA0004FF0FF30D1E040236B61002309932023E5
:101BB0008DF82930CDF80C803023DFF8A8818DF81E
:101BC0002A304FF0010923469A4613F8012B0AB137
:101BD000252AF9D1BAEB040B0BD05B4622462946E5
:101BE0003846FFF76DFF013000F0AA80099A5A4489
:101BF00009929AF80030002B00F0A28000234FF0E9
:101C0000FF32CDE905230AF1010A049307938DF809
:101C100053301A935446052214F8011B514800F022
:101C20003FFA049AD8B9D00644BF20238DF8533028
:101C3000110744BF2B238DF853309AF800302A2B1C
:101C400015D0079A544600204FF00A0C214611F88F
:101C5000013B303B092B4ED9B0B1079214E0A0EB09
:101C6000080309FA03F313430493A246D2E7039B44
:101C7000191D1B680391002BBBBF5B4242F002029F
:101C800007930793B8BF049223782E2B0CD1637867
:101C90002A2B35D1039B1A1D1B680392002BB8BF5A
:101CA0004FF0FF3302340593DFF8C8A021780322F8
:101CB000504600F0F5F940B14023A0EB0A0003FACA
:101CC00000F0049B03430134049314F8011B2648DD
:101CD0008DF82810062200F0E3F9002838D0234BB5
:101CE0001BBB039B073323F0070308330393099BB4
:101CF0003344099367E70CFB02320C460120A5E749
:101D000000230134059319464FF00A0C204610F8C1
:101D1000012B303A092A03D9002BC5D00591C3E71E
:101D20000CFB012104460123F0E703AB00932A4694
:101D30000F4B04A93846AFF30080421C0646D6D1AB
:101D4000AB895B063FF52CAF09981DB0BDE8F08F5D
:101D500003AB00932A46064B04A9384600F07AF8F4
:101D6000EBE700BFCB250008D525000800000000E8
:101D7000C11A0008D12500082DE9F04716469946FA
:101D80008A680B69DDF820809342B8BF1346336040
:101D900091F8432007460C460AB1013333602368AB
:101DA000990642BF336802333360256815F0060593
:101DB00006D104F1190AE36832689B1AAB4226DCAB
:101DC00094F84320131E226818BF012392062BD4D7
:101DD00004F1430249463846C04701301ED023680B
:101DE000E568326803F00603042B08BFAD1AA36848
:101DF00022690CBF25EAE57500259342C4BF9B1AF2
:101E0000ED1800261A34B5421AD1002008E001234B
:101E1000524649463846C047013003D14FF0FF30A3
:101E2000BDE8F0870135C6E7E1185A1C302081F87B
:101E30004300224494F8451082F843100233C7E768
:101E40000123224649463846C0470130E6D00136D4
:101E5000D9E700002DE9FF470C469146277E0C99F3
:101E6000782F80469A4604F1430207D8622F0AD899
:101E7000002F00F0D880582F00F0A38004F1420614
:101E800084F842703AE0A7F16303152BF6D801A05D
:101E900050F823F0ED1E0008011F00087D1E000809
:101EA0007D1E00087D1E00087D1E0008011F000821
:101EB0007D1E00087D1E00087D1E00087D1E000896
:101EC0000D200008311F0008EF1F00087D1E0008CC
:101ED0007D1E00082F2000087D1E0008311F00080D
:101EE0007D1E00087D1E0008F71F00080B681A1DE4
:101EF0001B680A6004F1420684F842300123A3E023
:101F0000256808682E0600F104030AD505680B60F1
:101F1000002D03DA2D236D4284F843305E480A23F6
:101F200019E015F0400F05680B6018BF2DB2EFE700
:101F30000B682568181D0860280601D51D6802E099
:101F40006906FBD51D8854486F2F0CBF08230A2350
:101F5000002184F843106668A660002EA2BF2168A5
:101F600021F0040121600DB9002E4DD01646B5FBBD
:101F7000F3F103FB1157C75D06F8017D2F46BB4205
:101F80000D46F4D9082B0BD12368DF0708D5236948
:101F900061689942DEBF302306F8013C06F1FF3646
:101FA000921B2261CDF800A04B4603AA2146404671
:101FB000FFF7E2FE01304CD14FF0FF3004B0BDE836
:101FC000F087354884F8457023680E681F0656F878
:101FD000045B0E6014D5D90744BF43F0200323608F
:101FE0001DB9236823F0200323601023B0E7236882
:101FF00043F0200323607823284884F84530E3E742
:102000005E0648BFADB2E6E71646BBE70B6826683A
:1020100060691D1D0D6035061B6801D5186002E062
:102020007106FBD51880002323611646BAE70B68BA
:102030001A1D0A601E6862680021304600F030F800
:1020400008B1801B606063682361002384F843301B
:10205000A8E72369324649464046D0470130ABD015
:1020600023689B0713D4E068039B9842B8BF1846C7
:10207000A4E70123324649464046D04701309BD071
:102080000135E36803995B1AAB42F2DCEBE700250C
:1020900004F11906F5E700BFDC250008ED2500086E
:1020A00001F0FF01102A2BDB10F0070F08D010F809
:1020B000013B013A8B422DD010F0070F42B3F6D10D
:1020C000F0B441EA012141EA014122F007047FF026
:1020D00000070023F0E80256083C85EA010586EA7D
:1020E000010685FA47F5A3FA87F586FA47F6A5FAB9
:1020F00087F68EB9EED1F0BC01F0FF0102F00702C5
:1021000032B110F8013B013A83EA010313B1F8D16F
:102110000020704701387047002D06BF3546033850
:10212000073815F0010F07D1013015F4807F02BF89
:10213000013015F4C03F0130F0BC0138704700BFDA
:102140000A44914200F1FF3300D1704710B511F8F5
:10215000014B03F8014F9142F9D110BD884210B5EF
:1021600001EB020402D98442234607D8431EA14250
:1021700008D011F8012B03F8012FF8E702440146BB
:102180008A4200D110BD13F8014D02F8014DF7E766
:1021900038B50546002945D051F8043C0C1F002BEA
:1021A000B8BFE41800F0D2F81F4A1368104633B9DC
:1021B000636014602846BDE8384000F0CDB8A34203
:1021C0000BD921686218934204BF1A685B68636088
:1021D00004BF521822600460ECE71A465B680BB13A
:1021E000A342FAD911685018A0420BD120680144CB
:1021F000501883421160DDD118685B685360014458
:102200001160D7E702D90C232B60D3E7206821188F
:102210008B4204BF19685B68636004BF09182160C2
:102220005460C7E738BD00BF50010020F8B5CD1C91
:1022300025F0030508350C2D38BF0C25002D06466A
:1022400001DBA94203D90C2333600020F8BD00F064
:102250007DF821490A6814469CB9204F3B6823B990
:102260002146304600F062F838602946304600F0DA
:102270005DF8431C23D10C233360304600F06CF82A
:10228000E3E723685B1B17D40B2B03D923601C44A3
:10229000256004E06368A2420CBF0B6053603046C7
:1022A00000F05AF804F10B00231D20F00700C21AB9
:1022B000CCD01B1AA350C9E722466468CCE7C41CE3
:1022C00024F00304A042E3D0211A304600F02EF897
:1022D0000130DDD1CFE700BF5001002054010020C4
:1022E000F8B5074614460E4621B9BDE8F840114638
:1022F000FFF79CBF22B9FFF74BFF25462846F8BDE4
:1023000000F030F8A0420FD221463846FFF78EFF8A
:1023100005460028F2D031462246FFF711FF31462C
:102320003846FFF735FFE9E73546E7E738B5064DAC
:102330000023044608462B60FEF7CAFE431C02D168
:102340002B6803B1236038BD5C010020014800F018
:1023500011B800BF64010020014800F00CB800BFB4
:102360006401002051F8043C181F002BBCBF0B581F
:10237000C0187047704770472E2E2F73797374659D
:102380006D2F7372632F73746D333266342D6861F1
:102390006C2F73746D3332663478785F68616C5F6C
:1023A000636F727465782E63000000002E2E2F7309
:1023B000797374656D2F7372632F73746D33326626
:1023C000342D68616C2F73746D3332663478785FA6
:1023D00068616C5F6770696F2E6300002E2E2F732B
:1023E000797374656D2F7372632F73746D333266F6
:1023F000342D68616C2F73746D3332663478785F76
:1024000068616C5F7263632E6300000053746163E4
:102410006B206672616D653A0A0000002052302020
:102420003D2020253038580A00000000205231207D
:102430003D2020253038580A00000000205232206C
:102440003D2020253038580A00000000205233205B
:102450003D2020253038580A00000000205231323B
:10246000203D20253038580A00000000204C522022
:102470003D2020253038580A00000000205043201D
:102480003D2020253038580A0000000020505352CB
:10249000203D20253038580A000000004653522FB6
:1024A0004641523A0A0000002043465352203D2044
:1024B00020253038580A00002048465352203D203D
:1024C00020253038580A00002044465352203D2031
:1024D00020253038580A00002041465352203D2024
:1024E00020253038580A0000204D4D464152203DED
:1024F00020253038580A00002042464152203D2015
:1025000020253038580A00004D6973630A00000026
:10251000204C522F4558435F52455455524E3D2052
:10252000253038580A0000005B48617264466175C6
:102530006C745D0A000000005B4275734661756C47
:10254000745D0A005B55736167654661756C745D07
:102550000A00000000000000000000000102030467
:102560000607080957726F6E6720706172616D65AA
:10257000746572732076616C75653A2066696C6566
:10258000202573206F6E206C696E652025640D0A0E
:102590000000000048656C6C6F2041726D20576F21
:1025A000726C64210000000053797374656D2063C0
:1025B0006C6F636B3A20257520487A0A0000000092
:1025C0005365636F6E642025750A00232D302B2020
:1025D00000686C4C00656667454647003031323311
:1025E000343536373839414243444546003031327C
:0E25F00033343536373839616263646566000E
:082600006CF1FF7F01000000F6
:102608007856341201FFFFFF1000000088000020F8
:10261800000000000024F4001C000020000000005E
:1026280000000000000000000000000000000000A2
:102638000000000000000000000000000000000092
:102648000000000000000000000000000000000082
:102658000000000000000000000000000000000072
:102668000000000000000000000000000000000062
:1026780000000000000000000000000032547698BE
:040000050800018965
:00000001FF
